:020000040000FA
:10000000031383168601FF30870007309F000730F7
:1000100085008312003086001F21871F1028982832
:1000200005080739A00007080739A1001A28BF30C2
:1000300086000D2820082107003C03196B282008A2
:100040002107013C03196E2820082107023C0319EF
:10005000712820082107033C031974282008210770
:10006000043C0319772820082107053C03197A2846
:1000700020082107063C03197D2820082107073C9A
:100080000319802820082107083C03198328200829
:100090002107093C03198628200821070A3C031977
:1000A0008928200821070B3C03198C2820082107E8
:1000B0000C3C03198F28200821070D3C03199228B6
:1000C000200821070E3C031995282008210717282E
:1000D000BF3086000D28C03086000D28F93086001C
:1000E0000D28A43086000D28B03086000D289930E8
:1000F00086000D28923086000D28823086000D285B
:10010000F83086000D28003086000D28103086005B
:100110000D28C03086000D28F93086000D28A43047
:1001200086000D28B03086000D28993086000D28F5
:1001300005080739A00007080739A1002008210297
:10014000031C6828A328003C03196B2820082102FF
:10015000013C03196E2820082102023C0319712872
:1001600020082102033C0319742820082102043CC2
:100170000319772820082102053C03197A28200852
:100180002102063C03197D2820082102073C03199F
:10019000802820082102083C031983282008210216
:1001A000093C03198628200821020A3C03198928E2
:1001B000200821070B3C03198C28200821020C3C45
:1001C00003198F28200821020D3C031992282008CA
:1001D00021020E3C031995282008210286000D28D3
:1001E0000000000000000000000000000800000007
:1001F000A43003290000403003291F3003290000E8
:100200000E30032905308C008C0B04290800C830FF
:1002100016296430162932301629143016290A306E
:100220001629053016290230162901308D00F930C3
:100230008C0000008C0B19298D0B17290800C83081
:100240002A2964302A2932302A2914302A290A30EE
:100250002A2905308E0064308D00F9308C000000B2
:0E0260008C0B2F298D0B2D298E0B2B290800BE
:02400E00713F00
:00000001FF
